:020000040800F2
:1000000028080020950100089D0100089F010008B4
:10001000A1010008A3010008A501000800000000DC
:10002000000000000000000000000000A701000820
:10003000A901000800000000AB010008AD010008A4
:10004000AF010008AF010008AF010008AF010008D0
:10005000AF010008AF010008AF010008AF010008C0
:10006000AF010008AF010008AF010008AF010008B0
:10007000AF010008AF010008AF010008AF010008A0
:10008000AF010008AF010008AF010008AF01000890
:10009000AF010008AF010008AF010008AF01000880
:1000A000AF010008AF010008AF010008AF01000870
:1000B000AF010008D1050008AF010008AF0100083A
:1000C000AF010008AF010008AF010008AF01000850
:1000D000AF010008AF01000875060008AF01000875
:1000E000AF010008AF010008AF01000800F002F8FE
:1000F00000F041F80AA090E8000C82448344AAF181
:100100000107DA4501D100F036F8AFF2090EBAE87E
:100110000F0013F0010F18BFFB1A43F0010318473B
:10012000F01B0000101C0000103A24BF78C878C1F2
:10013000FAD8520724BF30C830C144BF04680C60ED
:10014000704700000023002400250026103A28BF35
:1001500078C1FBD8520728BF30C148BF0B60704739
:10016000642900F07F80002070471FB500F0BAF8C6
:100170001FBD10B510BD00F051F91146FFF7F5FF96
:1001800000F0D4FF00F06FF903B4FFF7F2FF03BCF7
:1001900000F074F90948804709480047FEE7FEE788
:1001A000FEE7FEE7FEE7FEE7FEE7FEE7FEE7FEE727
:1001B00004480549054A064B7047000071050008D0
:1001C000ED00000828020020280800202804002054
:1001D000280400200FB41CB5074B06AA7B446946CF
:1001E0000090059800F0F9F80020694600F008F941
:1001F0001CBC5DF814FB0000210200002DE9F04159
:100200000E460446002020622046E168884730B34D
:10021000252805D0D4E901219047206A401CF2E747
:10022000E168204600278847050018D0A5F1410065
:10023000192802D820354FF4006732462946204657
:100240002760FFF78DFF40B1012804D0F61D26F08E
:1002500007060836D8E7361DD6E72846DAE7206ACB
:10026000BDE8F0812DE9F0410646002410687529AB
:10027000314616A510D0AFF30080002802DA4042C4
:1002800013A507E031688A0701D512A502E04907E6
:1002900004D511A5012401E0AFF3008000210A225A
:1002A00006F1240709E0B0FBF2FCB0FBF2F302FB1D
:1002B0001C00303078541846491C0028F3D12346DE
:1002C0002A463046BDE8F04100F029B800000000A1
:1002D0002D0000002B000000200000007047704738
:1002E0007047000070B5064C7C44064D7D4403E029
:1002F000206820448047241DAC42F9D170BD000025
:10030000441A0000481A000010B500F07FF8006899
:1003100010BD10B5044600F079F8046010BD2DE959
:10032000F0470D4699469246044600F124080168BC
:10033000880604D5E06921F01001216000E0012069
:10034000A84201DD471B00E00027A1697A1902EBF2
:100350000900081AA0612078C00602D42046AFF335
:100360000080002608E0D4E901211AF80600904731
:10037000206A401C761C20624E45F4DB2078C006C3
:100380000AD52046AFF3008006E0D4E901213020F1
:100390009047206A401C2062381EA7F10107F4DC58
:1003A00007E0D4E9012118F805009047206A401CB5
:1003B0002062281EA5F10105F3DC2046AFF3008082
:1003C0002078000602D50220BDE8F0870120FBE777
:1003D00001694A1C02610878704700B58FB0CDE909
:1003E00001310021059105497944CDE903101146F9
:1003F0006846FFF703FF0FB000BD0000E5FFFFFFF9
:100400000A6802F8010B0A60704700000048704754
:10041000C401002000487047C40100207546FFF762
:10042000F9FFAE4605006946534620F007008546B1
:1004300018B020B5FFF7BCFEBDE820404FF0000625
:100440004FF000074FF000084FF0000B21F00701BC
:10045000AC46ACE8C009ACE8C009ACE8C009ACE8FF
:10046000C0098D46704710B50446AFF300802046A2
:10047000BDE81040FFF788BE704700000149182012
:10048000ABBEFEE72600020010B500F001F810BD7B
:100490000CB50020019000903348006840F4803093
:1004A0003149086000BF3048006800F40030009017
:1004B0000198401C0190009818B90198B0F5A06F00
:1004C000F1D12948006800F4003010B101200090FB
:1004D00001E0002000900098012843D123480068E3
:1004E00040F01000214908600846006820F0030031
:1004F00008600846006840F0020008601A4840683A
:10050000194948600846406848600846406840F419
:10051000806048600846406820F47C1048600846C7
:10052000406840F4E81048600846006840F0807079
:10053000086000BF0C48006800F000700028F9D087
:100540000948406820F003000749486008464068B1
:1005500040F00200486000BF0348406800F00C0013
:100560000828F9D10CBD0000001002400020024014
:1005700010B51348006840F00100114908600846B2
:100580004068104908400E494860084600680E4916
:1005900008400B4908600846006820F48020086085
:1005A0000846406820F4FE0048604FF41F00886051
:1005B000FFF76AFF4FF000600449086010BD0000BB
:1005C000001002400000FFF8FFFFF6FE08ED00E01B
:1005D00010B51F4800881F4908604FF08040808C8C
:1005E0001D4908601B4800681C490968401A1949E0
:1005F0000860194800681A490968401A16490860D5
:1006000016480068134909680844144908601448EA
:10061000006811490968084411490860012011491E
:10062000087000BF1048806800F400540F4800684C
:10063000A04204D00D4920460C6000F03DF800BFF8
:100640000B48008820F001000949088010BD000017
:100650002408004010000020140000202400002086
:100660002800002018000020001001401C0000207D
:100670001004004010B50F48048804F0200028B191
:100680000C49091D0988C8B200F02EF804F080005A
:1006900078B100F09DFA041E03D00649091D0C80B4
:1006A00007E004480C30008820F0800001490C313C
:1006B000088010BD0044004068B10949097881F004
:1006C0000101074A117011B14FF4C86100E0002127
:1006D000044A116002E00021024A116070470000E4
:1006E000080000200000002010B52022254B1A70C1
:1006F0000A2800D110BD202805D1234A126812789B
:10070000202A00D1F6E7204A1268521C1E4B1A60BC
:1007100010700D2800D0EDE700221B4B1B681A70EB
:10072000184A521C184B1A6000210DE0164A126834
:100730001378154A1268521C134C226001EB810297
:1007400003EB4202A2F130010F4A12681278302AFC
:1007500004DB0D4A12681278392AE7DD0A4A12686A
:100760001278642A07D109B10A4601E04FF4C86241
:10077000064B1A6000E000BF00BF024A024B1A603D
:1007800000BFB7E7C40000200C00002004000020D8
:100790000348006808B1012070470020FCE7000012
:1007A0002C00002001460748006808B1002070476F
:1007B000044801600448008840F08000024A10802C
:1007C0000120F4E72C0000200C440040002801DD4B
:1007D000024600E000220D4B1A80002801DA424256
:1007E00000E00022094B1B1F1A80002901DD0A4688
:1007F00000E00022054B1B1D1A80002901DA4A4245
:1008000000E00022014B08331A8070473804004092
:1008100002460848007808B900207047064800687A
:1008200010600648006808600020024B1870012024
:10083000F3E7000018000020100000201400002042
:1008400000BF20200149086000BF70471008014028
:100850002DE9F04F89B004468946BE4800686428F7
:1008600071DABD49206809680844BB490860BB4982
:10087000D9F8000009680844B8490860B848006819
:1008800000F025FF0746B74AB74B00F073FFCDE9EC
:10089000000100F009FB05460022B44B01F09EF870
:1008A0000022B34BCDE9020100F064FFCDE906015F
:1008B000B048006800F00BFFCDE90401DDE9062334
:1008C00000F0C2FC824600F0D3FEAA490860A448AA
:1008D000006800F0FCFE8246A24AA34B00F04AFFEB
:1008E000074600F0E1FA05460022A04B01F076F839
:1008F0000022A14BCDE9000100F03CFFCDE904014D
:100900009E48006800F0E3FECDE90201DDE9042322
:1009100000F09AFCCDE9060100F0AAFE97490860B4
:1009200097480068206097480068C9F80000894827
:100930000068401C8749086089480068401C884955
:10094000086004E1FFE78449206809680844824997
:1009500008608249D9F80000096808447F490860A6
:100960007F48006800F0B3FE07467E4A7E4B00F0E9
:1009700001FF054600F098FA00227C4BCDE900010A
:1009800001F02CF800227A4BCDE9020100F0F2FED2
:10099000CDE904017748006800F099FE8246DDE960
:1009A000042300F051FCCDE9060100F061FE71491D
:1009B00008606B48006800F08AFE0746694A6A4B87
:1009C00000F0D8FE054600F06FFA82460022674B21
:1009D00001F004F80022684BCDE9000100F0CAFEE6
:1009E000CDE904016548006800F071FECDE902011F
:1009F000DDE9042300F028FCCDE9060100F038FE13
:100A00005E4908605B48006853490968401A6421E0
:100A100090FBF1F05C490860584800684F4909684C
:100A2000401A642190FBF1F058490860544800686E
:100A30005549096840F6C30202FB010054490968A0
:100A4000921F02FB1100534908604E4800684F494D
:100A5000096840F65E4202FB01004F49096840F612
:100A6000564202FB11004D4908604A480068096877
:100A700008444B4908604B48006800F028FE4A4A89
:100A80004A4BCDE9040100F075FE05460E46444888
:100A9000006800F01CFE0022454BCDE9040100F087
:100AA00069FE07462A46334600F0A4FF824600222C
:100AB000404B00F093FFCDE9060100F0D9FD206026
:100AC0002F49206808603748006800F000FE05469E
:100AD000354A364B00F04EFECDE90601304800683D
:100AE00000F0F5FD0546344A344B00F043FECDE9F5
:100AF0000401DDE9062300F07DFF074600222D4BAF
:100B000000F0A2FB824600F0B3FDC9F800001D49C9
:100B1000D9F8000008601C4800681D4908601B489F
:100B200000681D4908601E4800681E4908600C489E
:100B30000068401C0A490860002006490860064910
:100B40000860064908600B4908600C49086009B054
:100B5000BDE8F08F6800002034000020380000203D
:100B6000640000209A9999999999A9BF0000F03FD3
:100B7000004060403C00002000C057404000002082
:100B80006C0000207000002044000020480000207D
:100B90004C0000205400002050000020580000208D
:100BA0005C00002060000020EF38454772F9DF3F0D
:100BB0000000E03F0070C740295C8FC2F528E03F8D
:100BC00000BF20200149086000BF704714080140A1
:100BD0000848006808B90020704706480068017896
:100BE00004480068401C034A106009B900201060E6
:100BF0000846F1E72C00002010B502463A48C069CB
:100C000040F00700384BD8611846806940F00C006E
:100C100098613648006820F07F4141F02A40334B0C
:100C200018603348006820F0FF0141F0AA00304B03
:100C3000186067202F4B1880DB0618811846008B40
:100C400040F4807018832B481030008840F4807086
:100C5000284B103318804FF08040008840F001008E
:100C60004FF08043188023480838008840F0010086
:100C7000204B083B188046F668001F4B18801B1F4E
:100C8000188041F211101C4B1B1D188003201A4BB9
:100C90000C3318804AF6C7701B1D188016481C3884
:100CA000008840F00100144B1C3B188012480C389F
:100CB000008820F00100104B0C3B1880181F0088A2
:100CC00040F001001B1F18801D20002809DB00F0E8
:100CD0001F040123A3404409A40004F1E024C4F844
:100CE000003100BF104610BD001002400008014056
:100CF000000C0140080800401C040040490050EA74
:100D0000C12018BF04204A0D18BF40F0010040F276
:100D1000FF72B2EB515F08BF40F00200012808BF2C
:100D2000052070472DE9F0414F1E00EBC701044636
:100D3000D1E9000115461E4637F006020DD02A46BD
:100D4000334600F017FD7F1E04EBC703D3E90023F1
:100D500000F07AFA37F00602F1D1022F25D0042FE5
:100D600013D0062F18BFBDE8F0812A46334600F0A5
:100D700001FDD4E90A2300F067FA2A46334600F061
:100D8000F9FCD4E9082300F05FFA2A46334600F064
:100D9000F1FCD4E9062300F057FA2A46334600F066
:100DA000E9FCD4E9042300F04FFA2A46334600F068
:100DB000E1FCD4E9022300F047FA2A46334600F06A
:100DC000D9FCD4E90023BDE8F04100F03DBA01228E
:100DD00000F02CBF40F2013200204FF0E04100F063
:100DE00025BF0000024A0020110700F01FBF0000CD
:100DF00001FDFFFF10B518491848806940F0040054
:100E0000164B98611648006820F4706242F4206026
:100E1000134B18601148C06940F400300F4BD86183
:100E200040F239100F4B18802C201B1D18801846DB
:100E3000008840F4005018802620002809DB00F0CC
:100E40001F040123A3404409A40004F1E024C4F8D2
:100E5000003100BF00BF10BD300000200010024074
:100E6000000801400844004010B50B484FF4005200
:100E700002600A4A926942F01402084B9A61084AD9
:100E8000126822F4700141F40012054B1A6000BF91
:100E90000448FFF7B1FE10BD1C0000200010024006
:100EA00000080140200000202DE9F04D894BCE0FB5
:100EB00021F0004784B005460C469F4230D3864857
:100EC000874211D3C7F31300284305D004B0284646
:100ED000BDE8F04DFFF77BBF002E1ABF0020014692
:100EE000284604B0BDE8F08D7C4A284600F040FD5D
:100EF00007D20220FFF70DFA04B0BDE8F04DFFF76E
:100F000069BF774A774B2846214600F0F7FB07D2A6
:100F10000220FFF7FEF904B0BDE8F04DFFF762BF15
:100F20007148B84248D27148874215D27048784417
:100F300000EBC6002146D0E90023284600F05AFD08
:100F4000CDE900016B48784400EBC600D0E900AB66
:100F5000C6F10100861B26E0674A684B28462146F9
:100F600000F008FC664A7A4402EBC603D3E900238A
:100F700000F06AF900F07CFB064600F0A8FB07468B
:100F80008846604A604B00F0F5FB2A46234600F095
:100F900025FDCDE900015D4A5D4B3846414600F034
:100FA000E9FB82468B46DDE9000152465B4600F0D4
:100FB00021FD05460C4618E05648874214D2564A91
:100FC000564B2846214600F03FF9554E0022334645
:100FD00000F0CEFC08D204B0334628462146BDE8D6
:100FE000F04D002200F030B900262A462346104674
:100FF000194600F0BFFB804602464A480F460B46A2
:1010000005217844FFF78EFE42463B4600F0B2FBD6
:101010002A46234600F0E2FC07468846E6B302462D
:101020000B4600204FF0804100F0E4FCCDE90201C6
:101030003A4643462846214600F09CFBDDE9022360
:1010400000F0BEF952465B4600F0C8FCDDE9002323
:1010500000F0D0FC0022324B00F0C0FC6FF47F7235
:101060009642A2BF01EB065104B0BDE8F08D4FF0EF
:101070007A5202EB065211442B4A00F0D7FD044687
:101080000D46FFF73BFE042808BFFFF7ABFE2046E6
:1010900004B02946BDE8F08DFFE700224FF0804301
:1010A00000F0A8FC82460E463A46434628462146B2
:1010B00000F060FB5246334600F082F92A46234690
:1010C00000F098FC04B00022BDE8F04D144B00F095
:1010D00085BC0000422E86400000F07FEF39FAFE0A
:1010E00051302DD5104987C0422ED63FB2A2F03FD5
:1010F000960D00008E0D0000FE822B654715F73F10
:101100004E0D00000000E0FE422EE63F763C7935B1
:10111000EF39EA3D0000303E9C7500883CE4377EA4
:101120000000F03FE20C000018FCFFFF1FB576E066
:1011300002A903A8FFF76CFB002849D038480068D3
:1011400058B1DDE9020100EB0110C1B2344800687A
:10115000401E334A1060334A115402A903A8FFF716
:1011600077FB4AF6C7710398884201DD0846039071
:101170004AF6C7710298884201DD08460290284865
:10118000006808B1039800E000200390244800683C
:1011900008B1029800E000200290DDE90210FFF79C
:1011A00015FB1F48006858B11F491D4A0398126873
:1011B00021F812001D491A4A0298126821F81200FB
:1011C0001748006810B1FFF73BFB01E0FFF7F8FCA0
:1011D0001748006810B3FFF7DBFAF8B91448006845
:1011E000401E13490860104931F810500F4810494B
:1011F000096830F811600B480D490968445C04F037
:101200000F0724113B4622460AA10E48CDE900569D
:10121000FEF7E0FF0B48FFF7C5FA00BF00BF87E706
:10122000000000200010002040160020C0220020F6
:101230000400002025642025642025642025640DF9
:101240000A0000007400002010B591EA030F48BFA7
:1012500083F0004300F1D683841A71EB030C05D2AE
:10126000121943EB0C03001B61EB0C01DFF824E1C6
:101270004FEA1154A4EB135C1EEA430F18BF9EEA19
:10128000445F73D023EA0E03DCF1200E21EA0451FF
:1012900043F4801332D322FA0CFE10EB0E0023FA33
:1012A0000CFE41EB0E01CCF1200E03FA0EFE10EB0A
:1012B0000E0051F10001B1F5801FCCF1200E32D2A9
:1012C00001EB045112FA0EF2BDE8104058BF70470E
:1012D000401C38BF5FEA420218BF7047002814BFA5
:1012E00020F0010041F100014FEA410313F5001F16
:1012F00038BF7047A1F1C04100F034BB012A43EB75
:101300000302ACF1200CDCF11F0E32BF4FF0000ED7
:1013100023FA0CF310EB030041EB0451B4EB115F23
:10132000D0D0A1EB045101F5801149085FEA3000EB
:1013300001EB04510ED350F1000038BF12FA0EFE3B
:1013400008D1BDE81040C9E7401C38BF5FEA42023F
:10135000CAD1C3E7BDE810404FEA410313F5001FAF
:1013600038BF7047A1F1C04100F0FCBA9EEA445F6B
:1013700008D011EA5E0FBDE8104004BF01F0004143
:1013800000207047BDE8104070B500F09DFA00BF26
:1013900064FBBE3E0000E0FF02494FF0000000F099
:1013A00013BC00BF0000F87F491058BFC1F1404195
:1013B0005B1058BFC3F140438B42EFF3008070478E
:1013C0002DE9C04130B4DFF8A0C23CEA111418BFC7
:1013D0003CEA131400F0EC8081EA03051CEA1114C6
:1013E00044EAD57418BF1CEA131500F0C780A4EBBB
:1013F00005044FF0004545EAC12145EAC32341EA0F
:10140000505143EA525304F17F74994204F5003479
:101410004FEAC0204FEAC22208BF904200F09C80F1
:101420004FEA13650FF24016765D4FEA134506FB4F
:1014300005F7C7F1807706FB07F74FEAD737A7FB19
:1014400003687642C8F58038A7FB06CE38BFA8F1FE
:10145000010807FB08E64FF0000EA6FB028CE6FB36
:1014600003CEDCF1000CCEF1004E38BFAEF1010E20
:10147000A6FB0C584FF000074FF00005E6FB0E8767
:10148000A1FB08C6A0FB07CE16EB0E0645F1000532
:10149000E1FB076515F1E04E7EBFA4F580345FEAFD
:1014A00046066D4116F1800745F100054FEA172702
:1014B0004FEA066647EA0567A6F1DE46B6F1805FA9
:1014C0004FEA15251FD9384624F0010C05EBC471ED
:1014D000BCF1FE6F01EB0C1102D8F0BCBDE800813D
:1014E00024425CBF01F5801E9EEAC47F02D4F0BC9A
:1014F000BDE80081244238D4F0BCA1F1C041BDE870
:10150000004100F02FBA4FEAD22242EA43524FEA9A
:10151000D323A7FB02864FEAD02040EA415007FBC5
:1015200003661EEA0E0F4FEAD12105FB026658BF83
:10153000A6EB0056B6EB00564FEA520E4EEAC37EBB
:1015400018EB0E0E56EB530EBDD518EB02085E419C
:101550007F1C55F10005B6E74FF480154FF00007EA
:101560004FF000064FF00008ADE7F0BC4FF0000070
:1015700001F1C04101F00041BDE8008111EA0C1FFA
:101580000CEA131500D00CE013EA0C1F00F02580C4
:101590004FF00000F0BC81EA030101F00041BDE81A
:1015A0000081F0BCBDE8004181EA030100F0DAB936
:1015B000F0BCBDE8004170B500F086F9097EFC3E44
:1015C00000F007B881EA03014FF0000001F000418C
:1015D000704781EA030100F0C5B9F0BCBDE80041E5
:1015E0004FF0000021497047FFFDFBF9F7F5F4F2D9
:1015F000F0EEEDEBE9E8E6E4E3E1E0DEDDDBDAD8AE
:10160000D7D5D4D3D1D0CFCDCCCBCAC8C7C6C5C40B
:10161000C2C1C0BFBEBDBCBBBAB9B8B7B6B5B4B322
:10162000B2B1B0AFAEADACABAAA9A8A8A7A6A5A40D
:10163000A3A3A2A1A09F9F9E9D9C9C9B9A999998D1
:101640009797969595949393929191908F8F8E8E74
:101650008D8C8C8B8B8A8989888887878685858401
:1016600084838382828181800000FF070000F87FED
:101670004FEA41034FEA5353A3F58063D3F11E03AE
:10168000C8BFD3F1210C0CDD4FF0004242EAC12269
:1016900042EA505232FA03FC8CEAE17CACEBE17096
:1016A0007047102BC4BF0020704703F5787CBCF155
:1016B000FF3F04D06FF0004282EA2100704770B50E
:1016C00000F002F94992248000207047F2E710F000
:1016D000004248BF4042B0FA80F310FA03F10AD04A
:1016E000C3F11D0303F580634FEA415002EB03523F
:1016F00002EBD12170474FF00000704751EA030C14
:1017000017D41CF5801F58BFBCF5801F00F1068060
:10171000994218BF704708BF9042704707D711F52C
:10172000801F58BF13F5801F19D499427047894212
:1017300070471CF5801F08D5BCF5801FF7D58B427C
:1017400018BF704708BF824270474FF4001C1CEB63
:10175000410F38BF1CEB430F01D28B42704770B56D
:1017600000F0B2F8922449004FF000514FF080533E
:10177000FFF71ABEDFF848C170B51CEA111E1EBF84
:101780001CEA13159EEA0C0F95EA0C0F00F06F800F
:1017900081EA030423EA4C134EEAD47E21EA4C1179
:1017A00041F4801143F48013AE44A1FB024CA0FB32
:1017B0000365AEF17F7E361955EB0C05A1FB034C9A
:1017C0004CF10003A0FB021C16EB0C06654153F123
:1017D0000003094218BF46F0010613F4007F0BD145
:1017E0004FEA03314FEA0530340341EA155140EA2C
:1017F00016506FF003020AE04FEAC3214FEAC520FA
:10180000F40241EA555140EA56506FF0020202EBF1
:101810002E4201EB025585EACE710AD05FEA440CF4
:1018200018BF24F0004450F1000041F1000120EA0B
:10183000D47040F2FE7C624500D270BDA84214BF55
:101840004FF080444FF04044002E08BF0024BEF10A
:10185000806FA8BFA1F1C041BDE8704080F28280D6
:101860004FF0000001F1C04101F0004170479EEAD5
:101870000C0F0CEA131518BF95EA0C0F06D04FF0A9
:10188000000081EA030E0EF0004170BD00F01CF86C
:101890008900013E00F007B800F009B84FEA430C98
:1018A0005FEA5C5C08D081EA030100F05BB84FEAB4
:1018B000410C5FEA5C5CF6D14FF0000001497047D3
:1018C0000000FF070000F87F0EF1020E2EF0030E5D
:1018D0005EF8046B364205D4012A43EB030515F587
:1018E000001F12D8012841EB010C1CF5001F0CD879
:1018F0000ED14FEAD17C15F5001F0CEB4C0C0CF10E
:10190000020C08BF4CEBD37C04E04FF0080C01E064
:101910004FEAD37C0CEB4C0526FA05F606F00706D9
:10192000B6F1040C06D20EEB860CBDE870404CF00C
:10193000010C6047DFE80CF0090B02024FF0004198
:101940004FF00000A1F5002170BD19461046012896
:1019500051EB010418BFD4F5001484BF002001F03E
:10196000004170BD0808A0F500114FEA3101704731
:1019700053EA010C17D41CF5801F58BFBCF5801F1B
:1019800000F106808B4218BF704708BF8242704743
:1019900007D713F5801F58BF11F5801F19D48B424C
:1019A00070479B4270471CF5801F08D5BCF5801F0F
:1019B000F7D5994218BF704708BF904270474FF45F
:1019C000001C1CEB430F38BF1CEB410F01D29942A6
:1019D00070470FB40CBC03BCFFF7C1BE91EA030F04
:1019E00010B581F000413FF537AC83F0004300F0C3
:1019F00009B8000010B591EA030F48BF83F0004317
:101A00003FF52AAC841A71EB030C07D212198CF043
:101A1000004C43EB0C03001B61EB0C01DFF8A4E16D
:101A20004FEA1154A4EB135C1EEA430F18BF9EEA61
:101A3000445F00F0B08023EA6E03524221EA045171
:101A4000C3EB6E0338BF5B1EDCF1200E25D322FAF8
:101A50000CFE10EB0E0043FA0CFE41EB0E01CCF134
:101A6000200E03FA0EFE10EB0E0051F10001CCF136
:101A7000200E29D412FA0EF201EB0451BDE81040F9
:101A800058BF7047401C1CBFB2F1004F7047002880
:101A90000CBF491C20F00100704712EB020E43EB13
:101AA000030218BF4FF0010E4EEA4202ACF1200CC7
:101AB000DCF11E0E54D943FA0CFE10EB0E0051F16E
:101AC000FF31CCF11E0ED5D50EF1010E12FA0EFE2D
:101AD000404141EB010101EB445C5FEA5C5C10D9E1
:101AE00010EBDE7001EB045138BFBEF1004FBDE8D2
:101AF000104018BF704700280CBF491C20F001009F
:101B0000704730D24FEAD42C11F5001124F4006450
:101B10001BD0B1FA81F20B3AA41AA41ED2F1200311
:101B2000914030FA03F31943904001EBCC71002C43
:101B300001EB0451BDE81040A8BF704701F1C0415E
:101B40004FF0000001F000417047B0FA80F310FA46
:101B500003F100D110BDE41A173C4805C90AE4E7B7
:101B600001EB045110BD491001EB0451BDE81040D8
:101B70004FEA300002E04FF0000170474A0008BF12
:101B80000042F8D0B2F5001F28BF704701F00041B5
:101B90004FF0000070479EEA445F07D011EA5E0FE5
:101BA000BDE8104004BF002100207047BDE8104090
:101BB00070B5FFF789FE00BF40DFF63E83F00041BD
:101BC000104670470000E0FF0CF00F03092B08BF20
:101BD000082000F059800A2B0BD0082B18BF704743
:101BE00008BF1CF0400F0AD04FF000004FF000017A
:101BF00070471CF0400F18BF4FF0004070471CF0BA
:101C0000100F08D020F0704300F07F4242EAD30169
:101C10004FEA4370704700F0604021F07F4242EA93
:101C2000000201F07F4040EA727070474FF0FF0CF5
:101C30004CF4E06C1CEA11531CBF9CEA030C944565
:101C4000C2BFDA4201EB02517047002B0DD0BCF14C
:101C5000000F0FD0002A01F00041A4BF41F0E04185
:101C600041F07F614FF00000704701F000414FF0FC
:101C70000000704750EA01334FF09B0C18BF4CF046
:101C8000806C7FF489AB70471CF4801F11D01CF46A
:101C9000E02F03D06FEACC31490070474FF040503D
:101CA000EFF3008222F0704242EA000282F30088E1
:101CB00070474FF000007047000000000000E03F58
:101CC000000000000000E0BF0000E0FE422EE63F02
:101CD0000000E0FE422EE6BF763C7935EF39EA3D62
:101CE000763C7935EF39EABD3E5555555555C53FDA
:101CF00093BDBE166CC166BF2CDE25AF6A56113F80
:101D0000F16BD2C541BDBBBED0A4BE726937663E81
:101D1000381D0008000000207400000028010008A1
:101D2000AC1D000874000020B40700004401000846
:101D300039F1FFFFC1F0FFFF0000000000000000CC
:101D400000000000C40000200000000000000000AF
:101D50000000000000000000000000000000000083
:101D60000000000000000000000000000000000073
:101D70000000000000000000000000000000000063
:101D8000000000007400000054000000000000008B
:101D90000000000000000000000000000100000042
:0C1DA00001000000983A0000983A000092
:04000005080000ED02
:00000001FF
